{
  "_format": "hh-sol-artifact-1",
  "contractName": "Web3Citizen",
  "sourceName": "contracts/Web3Citizen.sol",
  "abi": [
    {
      "inputs": [],
      "stateMutability": "nonpayable",
      "type": "constructor"
    },
    {
      "anonymous": false,
      "inputs": [
        {
          "indexed": true,
          "internalType": "address",
          "name": "owner",
          "type": "address"
        },
        {
          "indexed": true,
          "internalType": "address",
          "name": "approved",
          "type": "address"
        },
        {
          "indexed": true,
          "internalType": "uint256",
          "name": "tokenId",
          "type": "uint256"
        }
      ],
      "name": "Approval",
      "type": "event"
    },
    {
      "anonymous": false,
      "inputs": [
        {
          "indexed": true,
          "internalType": "address",
          "name": "owner",
          "type": "address"
        },
        {
          "indexed": true,
          "internalType": "address",
          "name": "operator",
          "type": "address"
        },
        {
          "indexed": false,
          "internalType": "bool",
          "name": "approved",
          "type": "bool"
        }
      ],
      "name": "ApprovalForAll",
      "type": "event"
    },
    {
      "anonymous": false,
      "inputs": [
        {
          "indexed": true,
          "internalType": "address",
          "name": "from",
          "type": "address"
        },
        {
          "indexed": true,
          "internalType": "address",
          "name": "to",
          "type": "address"
        },
        {
          "indexed": true,
          "internalType": "uint256",
          "name": "tokenId",
          "type": "uint256"
        }
      ],
      "name": "Transfer",
      "type": "event"
    },
    {
      "inputs": [
        {
          "internalType": "address",
          "name": "",
          "type": "address"
        }
      ],
      "name": "addressToTokenId",
      "outputs": [
        {
          "internalType": "uint256",
          "name": "",
          "type": "uint256"
        }
      ],
      "stateMutability": "view",
      "type": "function"
    },
    {
      "inputs": [
        {
          "internalType": "address",
          "name": "to",
          "type": "address"
        },
        {
          "internalType": "uint256",
          "name": "tokenId",
          "type": "uint256"
        }
      ],
      "name": "approve",
      "outputs": [],
      "stateMutability": "nonpayable",
      "type": "function"
    },
    {
      "inputs": [
        {
          "internalType": "address",
          "name": "owner",
          "type": "address"
        }
      ],
      "name": "balanceOf",
      "outputs": [
        {
          "internalType": "uint256",
          "name": "",
          "type": "uint256"
        }
      ],
      "stateMutability": "view",
      "type": "function"
    },
    {
      "inputs": [
        {
          "internalType": "address",
          "name": "",
          "type": "address"
        }
      ],
      "name": "ballotAddresses",
      "outputs": [
        {
          "internalType": "uint256",
          "name": "",
          "type": "uint256"
        }
      ],
      "stateMutability": "view",
      "type": "function"
    },
    {
      "inputs": [
        {
          "internalType": "uint256",
          "name": "tokenID",
          "type": "uint256"
        }
      ],
      "name": "generateCitizenId",
      "outputs": [
        {
          "internalType": "string",
          "name": "",
          "type": "string"
        }
      ],
      "stateMutability": "nonpayable",
      "type": "function"
    },
    {
      "inputs": [
        {
          "internalType": "uint256",
          "name": "tokenId",
          "type": "uint256"
        }
      ],
      "name": "getApproved",
      "outputs": [
        {
          "internalType": "address",
          "name": "",
          "type": "address"
        }
      ],
      "stateMutability": "view",
      "type": "function"
    },
    {
      "inputs": [
        {
          "internalType": "uint256",
          "name": "tokenId",
          "type": "uint256"
        }
      ],
      "name": "getTokenURI",
      "outputs": [
        {
          "internalType": "string",
          "name": "",
          "type": "string"
        }
      ],
      "stateMutability": "nonpayable",
      "type": "function"
    },
    {
      "inputs": [],
      "name": "getVoteCount",
      "outputs": [
        {
          "internalType": "uint256",
          "name": "",
          "type": "uint256"
        }
      ],
      "stateMutability": "view",
      "type": "function"
    },
    {
      "inputs": [
        {
          "internalType": "address",
          "name": "owner",
          "type": "address"
        },
        {
          "internalType": "address",
          "name": "operator",
          "type": "address"
        }
      ],
      "name": "isApprovedForAll",
      "outputs": [
        {
          "internalType": "bool",
          "name": "",
          "type": "bool"
        }
      ],
      "stateMutability": "view",
      "type": "function"
    },
    {
      "inputs": [],
      "name": "mint",
      "outputs": [],
      "stateMutability": "nonpayable",
      "type": "function"
    },
    {
      "inputs": [],
      "name": "name",
      "outputs": [
        {
          "internalType": "string",
          "name": "",
          "type": "string"
        }
      ],
      "stateMutability": "view",
      "type": "function"
    },
    {
      "inputs": [
        {
          "internalType": "uint256",
          "name": "tokenId",
          "type": "uint256"
        }
      ],
      "name": "ownerOf",
      "outputs": [
        {
          "internalType": "address",
          "name": "",
          "type": "address"
        }
      ],
      "stateMutability": "view",
      "type": "function"
    },
    {
      "inputs": [
        {
          "internalType": "address",
          "name": "from",
          "type": "address"
        },
        {
          "internalType": "address",
          "name": "to",
          "type": "address"
        },
        {
          "internalType": "uint256",
          "name": "tokenId",
          "type": "uint256"
        }
      ],
      "name": "safeTransferFrom",
      "outputs": [],
      "stateMutability": "nonpayable",
      "type": "function"
    },
    {
      "inputs": [
        {
          "internalType": "address",
          "name": "from",
          "type": "address"
        },
        {
          "internalType": "address",
          "name": "to",
          "type": "address"
        },
        {
          "internalType": "uint256",
          "name": "tokenId",
          "type": "uint256"
        },
        {
          "internalType": "bytes",
          "name": "_data",
          "type": "bytes"
        }
      ],
      "name": "safeTransferFrom",
      "outputs": [],
      "stateMutability": "nonpayable",
      "type": "function"
    },
    {
      "inputs": [
        {
          "internalType": "address",
          "name": "operator",
          "type": "address"
        },
        {
          "internalType": "bool",
          "name": "approved",
          "type": "bool"
        }
      ],
      "name": "setApprovalForAll",
      "outputs": [],
      "stateMutability": "nonpayable",
      "type": "function"
    },
    {
      "inputs": [
        {
          "internalType": "bytes4",
          "name": "interfaceId",
          "type": "bytes4"
        }
      ],
      "name": "supportsInterface",
      "outputs": [
        {
          "internalType": "bool",
          "name": "",
          "type": "bool"
        }
      ],
      "stateMutability": "view",
      "type": "function"
    },
    {
      "inputs": [],
      "name": "symbol",
      "outputs": [
        {
          "internalType": "string",
          "name": "",
          "type": "string"
        }
      ],
      "stateMutability": "view",
      "type": "function"
    },
    {
      "inputs": [
        {
          "internalType": "uint256",
          "name": "",
          "type": "uint256"
        }
      ],
      "name": "tokenIdToVoteCount",
      "outputs": [
        {
          "internalType": "uint256",
          "name": "",
          "type": "uint256"
        }
      ],
      "stateMutability": "view",
      "type": "function"
    },
    {
      "inputs": [
        {
          "internalType": "uint256",
          "name": "tokenId",
          "type": "uint256"
        }
      ],
      "name": "tokenURI",
      "outputs": [
        {
          "internalType": "string",
          "name": "",
          "type": "string"
        }
      ],
      "stateMutability": "view",
      "type": "function"
    },
    {
      "inputs": [
        {
          "internalType": "address",
          "name": "from",
          "type": "address"
        },
        {
          "internalType": "address",
          "name": "to",
          "type": "address"
        },
        {
          "internalType": "uint256",
          "name": "tokenId",
          "type": "uint256"
        }
      ],
      "name": "transferFrom",
      "outputs": [],
      "stateMutability": "nonpayable",
      "type": "function"
    },
    {
      "inputs": [
        {
          "internalType": "address",
          "name": "votingAddress",
          "type": "address"
        }
      ],
      "name": "vote",
      "outputs": [],
      "stateMutability": "nonpayable",
      "type": "function"
    }
  ],
  "bytecode": "0x60806040523480156200001157600080fd5b506040518060400160405280600b81526020017f57656233436974697a656e0000000000000000000000000000000000000000008152506040518060400160405280600481526020017f5733494400000000000000000000000000000000000000000000000000000000815250816000908051906020019062000096929190620000b8565b508060019080519060200190620000af929190620000b8565b505050620001cd565b828054620000c69062000197565b90600052602060002090601f016020900481019282620000ea576000855562000136565b82601f106200010557805160ff191683800117855562000136565b8280016001018555821562000136579182015b828111156200013557825182559160200191906001019062000118565b5b50905062000145919062000149565b5090565b5b80821115620001645760008160009055506001016200014a565b5090565b7f4e487b7100000000000000000000000000000000000000000000000000000000600052602260045260246000fd5b60006002820490506001821680620001b057607f821691505b60208210811415620001c757620001c662000168565b5b50919050565b613fad80620001dd6000396000f3fe608060405234801561001057600080fd5b50600436106101375760003560e01c806360d1b355116100b857806395d89b411161007c57806395d89b4114610384578063a22cb465146103a2578063b88d4fde146103be578063c87b56dd146103da578063e7b3387c1461040a578063e985e9c51461042857610137565b806360d1b355146102a85780636352211e146102d85780636511bf2e146103085780636dd7d8ea1461033857806370a082311461035457610137565b806323b872dd116100ff57806323b872dd146101e05780633441bc0e146101fc57806339f8473d1461022c5780633bb3a24d1461025c57806342842e0e1461028c57610137565b806301ffc9a71461013c57806306fdde031461016c578063081812fc1461018a578063095ea7b3146101ba5780631249c58b146101d6575b600080fd5b6101566004803603810190610151919061209f565b610458565b60405161016391906120e7565b60405180910390f35b61017461053a565b604051610181919061219b565b60405180910390f35b6101a4600480360381019061019f91906121f3565b6105cc565b6040516101b19190612261565b60405180910390f35b6101d460048036038101906101cf91906122a8565b610651565b005b6101de610769565b005b6101fa60048036038101906101f591906122e8565b61087f565b005b6102166004803603810190610211919061233b565b6108df565b6040516102239190612377565b60405180910390f35b610246600480360381019061024191906121f3565b6108f7565b604051610253919061219b565b60405180910390f35b610276600480360381019061027191906121f3565b610a13565b604051610283919061219b565b60405180910390f35b6102a660048036038101906102a191906122e8565b610a7b565b005b6102c260048036038101906102bd91906121f3565b610a9b565b6040516102cf9190612377565b60405180910390f35b6102f260048036038101906102ed91906121f3565b610ab3565b6040516102ff9190612261565b60405180910390f35b610322600480360381019061031d919061233b565b610b65565b60405161032f9190612377565b60405180910390f35b610352600480360381019061034d919061233b565b610b7d565b005b61036e6004803603810190610369919061233b565b610c5c565b60405161037b9190612377565b60405180910390f35b61038c610d14565b604051610399919061219b565b60405180910390f35b6103bc60048036038101906103b791906123be565b610da6565b005b6103d860048036038101906103d39190612533565b610dbc565b005b6103f460048036038101906103ef91906121f3565b610e1e565b604051610401919061219b565b60405180910390f35b610412610f70565b60405161041f9190612377565b60405180910390f35b610442600480360381019061043d91906125b6565b610fca565b60405161044f91906120e7565b60405180910390f35b60007f80ac58cd000000000000000000000000000000000000000000000000000000007bffffffffffffffffffffffffffffffffffffffffffffffffffffffff1916827bffffffffffffffffffffffffffffffffffffffffffffffffffffffff1916148061052357507f5b5e139f000000000000000000000000000000000000000000000000000000007bffffffffffffffffffffffffffffffffffffffffffffffffffffffff1916827bffffffffffffffffffffffffffffffffffffffffffffffffffffffff1916145b8061053357506105328261105e565b5b9050919050565b60606000805461054990612625565b80601f016020809104026020016040519081016040528092919081815260200182805461057590612625565b80156105c25780601f10610597576101008083540402835291602001916105c2565b820191906000526020600020905b8154815290600101906020018083116105a557829003601f168201915b5050505050905090565b60006105d7826110c8565b610616576040517f08c379a000000000000000000000000000000000000000000000000000000000815260040161060d906126c9565b60405180910390fd5b6004600083815260200190815260200160002060009054906101000a900473ffffffffffffffffffffffffffffffffffffffff169050919050565b600061065c82610ab3565b90508073ffffffffffffffffffffffffffffffffffffffff168373ffffffffffffffffffffffffffffffffffffffff1614156106cd576040517f08c379a00000000000000000000000000000000000000000000000000000000081526004016106c49061275b565b60405180910390fd5b8073ffffffffffffffffffffffffffffffffffffffff166106ec611134565b73ffffffffffffffffffffffffffffffffffffffff16148061071b575061071a81610715611134565b610fca565b5b61075a576040517f08c379a0000000000000000000000000000000000000000000000000000000008152600401610751906127ed565b60405180910390fd5b610764838361113c565b505050565b6000600a60003373ffffffffffffffffffffffffffffffffffffffff1673ffffffffffffffffffffffffffffffffffffffff16815260200190815260200160002054146107eb576040517f08c379a00000000000000000000000000000000000000000000000000000000081526004016107e290612859565b60405180910390fd5b6107f560076111f5565b6000610801600761120b565b905061080d3382611219565b600060096000838152602001908152602001600020819055506108388161083383610a13565b611237565b80600a60003373ffffffffffffffffffffffffffffffffffffffff1673ffffffffffffffffffffffffffffffffffffffff1681526020019081526020016000208190555050565b61089061088a611134565b826112ab565b6108cf576040517f08c379a00000000000000000000000000000000000000000000000000000000081526004016108c6906128eb565b60405180910390fd5b6108da838383611389565b505050565b600b6020528060005260406000206000915090505481565b6060600060096000848152602001908152602001600020549050600060405160200161092290612dd6565b604051602081830303815290604052905060005b828110156109bf57600061095261094d60646115f0565b61165a565b9050600061096861096360646115f0565b61165a565b9050600061097f61097a6101686115f0565b61165a565b9050848383836040516020016109989493929190612fe0565b604051602081830303815290604052945050505080806109b790613079565b915050610936565b50806040516020016109d1919061315a565b60405160208183030381529060405290506109eb816117bb565b6040516020016109fb91906131d3565b60405160208183030381529060405292505050919050565b60606000610a208361165a565b610a29846108f7565b604051602001610a3a92919061342f565b6040516020818303038152906040529050610a54816117bb565b604051602001610a6491906134ec565b604051602081830303815290604052915050919050565b610a9683838360405180602001604052806000815250610dbc565b505050565b60096020528060005260406000206000915090505481565b6000806002600084815260200190815260200160002060009054906101000a900473ffffffffffffffffffffffffffffffffffffffff169050600073ffffffffffffffffffffffffffffffffffffffff168173ffffffffffffffffffffffffffffffffffffffff161415610b5c576040517f08c379a0000000000000000000000000000000000000000000000000000000008152600401610b5390613580565b60405180910390fd5b80915050919050565b600a6020528060005260406000206000915090505481565b6000600a60008373ffffffffffffffffffffffffffffffffffffffff1673ffffffffffffffffffffffffffffffffffffffff168152602001908152602001600020549050610bca816110c8565b610c09576040517f08c379a0000000000000000000000000000000000000000000000000000000008152600401610c00906135ec565b60405180910390fd5b600060096000838152602001908152602001600020549050600181610c2e919061360c565b6009600084815260200190815260200160002081905550610c5782610c5284610a13565b611237565b505050565b60008073ffffffffffffffffffffffffffffffffffffffff168273ffffffffffffffffffffffffffffffffffffffff161415610ccd576040517f08c379a0000000000000000000000000000000000000000000000000000000008152600401610cc4906136d4565b60405180910390fd5b600360008373ffffffffffffffffffffffffffffffffffffffff1673ffffffffffffffffffffffffffffffffffffffff168152602001908152602001600020549050919050565b606060018054610d2390612625565b80601f0160208091040260200160405190810160405280929190818152602001828054610d4f90612625565b8015610d9c5780601f10610d7157610100808354040283529160200191610d9c565b820191906000526020600020905b815481529060010190602001808311610d7f57829003601f168201915b5050505050905090565b610db8610db1611134565b838361191f565b5050565b610dcd610dc7611134565b836112ab565b610e0c576040517f08c379a0000000000000000000000000000000000000000000000000000000008152600401610e03906128eb565b60405180910390fd5b610e1884848484611a8c565b50505050565b6060610e29826110c8565b610e68576040517f08c379a0000000000000000000000000000000000000000000000000000000008152600401610e5f90613766565b60405180910390fd5b6000600660008481526020019081526020016000208054610e8890612625565b80601f0160208091040260200160405190810160405280929190818152602001828054610eb490612625565b8015610f015780601f10610ed657610100808354040283529160200191610f01565b820191906000526020600020905b815481529060010190602001808311610ee457829003601f168201915b505050505090506000610f12611ae8565b9050600081511415610f28578192505050610f6b565b600082511115610f5d578082604051602001610f45929190613786565b60405160208183030381529060405292505050610f6b565b610f6684611aff565b925050505b919050565b600060096000600a60003373ffffffffffffffffffffffffffffffffffffffff1673ffffffffffffffffffffffffffffffffffffffff16815260200190815260200160002054815260200190815260200160002054905090565b6000600560008473ffffffffffffffffffffffffffffffffffffffff1673ffffffffffffffffffffffffffffffffffffffff16815260200190815260200160002060008373ffffffffffffffffffffffffffffffffffffffff1673ffffffffffffffffffffffffffffffffffffffff16815260200190815260200160002060009054906101000a900460ff16905092915050565b60007f01ffc9a7000000000000000000000000000000000000000000000000000000007bffffffffffffffffffffffffffffffffffffffffffffffffffffffff1916827bffffffffffffffffffffffffffffffffffffffffffffffffffffffff1916149050919050565b60008073ffffffffffffffffffffffffffffffffffffffff166002600084815260200190815260200160002060009054906101000a900473ffffffffffffffffffffffffffffffffffffffff1673ffffffffffffffffffffffffffffffffffffffff1614159050919050565b600033905090565b816004600083815260200190815260200160002060006101000a81548173ffffffffffffffffffffffffffffffffffffffff021916908373ffffffffffffffffffffffffffffffffffffffff160217905550808273ffffffffffffffffffffffffffffffffffffffff166111af83610ab3565b73ffffffffffffffffffffffffffffffffffffffff167f8c5be1e5ebec7d5bd14f71427d1e84f3dd0314c0f7b2291e5b200ac8c7c3b92560405160405180910390a45050565b6001816000016000828254019250508190555050565b600081600001549050919050565b611233828260405180602001604052806000815250611ba6565b5050565b611240826110c8565b61127f576040517f08c379a00000000000000000000000000000000000000000000000000000000081526004016112769061381c565b60405180910390fd5b806006600084815260200190815260200160002090805190602001906112a6929190611f90565b505050565b60006112b6826110c8565b6112f5576040517f08c379a00000000000000000000000000000000000000000000000000000000081526004016112ec906138ae565b60405180910390fd5b600061130083610ab3565b90508073ffffffffffffffffffffffffffffffffffffffff168473ffffffffffffffffffffffffffffffffffffffff16148061134257506113418185610fca565b5b8061138057508373ffffffffffffffffffffffffffffffffffffffff16611368846105cc565b73ffffffffffffffffffffffffffffffffffffffff16145b91505092915050565b8273ffffffffffffffffffffffffffffffffffffffff166113a982610ab3565b73ffffffffffffffffffffffffffffffffffffffff16146113ff576040517f08c379a00000000000000000000000000000000000000000000000000000000081526004016113f690613940565b60405180910390fd5b600073ffffffffffffffffffffffffffffffffffffffff168273ffffffffffffffffffffffffffffffffffffffff16141561146f576040517f08c379a0000000000000000000000000000000000000000000000000000000008152600401611466906139d2565b60405180910390fd5b61147a838383611c01565b61148560008261113c565b6001600360008573ffffffffffffffffffffffffffffffffffffffff1673ffffffffffffffffffffffffffffffffffffffff16815260200190815260200160002060008282546114d591906139f2565b925050819055506001600360008473ffffffffffffffffffffffffffffffffffffffff1673ffffffffffffffffffffffffffffffffffffffff168152602001908152602001600020600082825461152c919061360c565b92505081905550816002600083815260200190815260200160002060006101000a81548173ffffffffffffffffffffffffffffffffffffffff021916908373ffffffffffffffffffffffffffffffffffffffff160217905550808273ffffffffffffffffffffffffffffffffffffffff168473ffffffffffffffffffffffffffffffffffffffff167fddf252ad1be2c89b69c2b068fc378daa952ba7f163c4a11628f55a4df523b3ef60405160405180910390a46115eb838383611c06565b505050565b60006008600081548092919061160590613079565b91905055506001826008544244336040516020016116269493929190613a8f565b6040516020818303038152906040528051906020012060001c6116499190613b0c565b611653919061360c565b9050919050565b606060008214156116a2576040518060400160405280600181526020017f300000000000000000000000000000000000000000000000000000000000000081525090506117b6565b600082905060005b600082146116d45780806116bd90613079565b915050600a826116cd9190613b3d565b91506116aa565b60008167ffffffffffffffff8111156116f0576116ef612408565b5b6040519080825280601f01601f1916602001820160405280156117225781602001600182028036833780820191505090505b5090505b600085146117af5760018261173b91906139f2565b9150600a8561174a9190613b0c565b6030611756919061360c565b60f81b81838151811061176c5761176b613b6e565b5b60200101907effffffffffffffffffffffffffffffffffffffffffffffffffffffffffffff1916908160001a905350600a856117a89190613b3d565b9450611726565b8093505050505b919050565b60606000825114156117de5760405180602001604052806000815250905061191a565b6000604051806060016040528060408152602001613f38604091399050600060036002855161180d919061360c565b6118179190613b3d565b60046118239190613b9d565b67ffffffffffffffff81111561183c5761183b612408565b5b6040519080825280601f01601f19166020018201604052801561186e5781602001600182028036833780820191505090505b509050600182016020820185865187015b808210156118da576003820191508151603f8160121c168501518453600184019350603f81600c1c168501518453600184019350603f8160061c168501518453600184019350603f811685015184536001840193505061187f565b50506003865106600181146118f6576002811461190957611911565b603d6001830353603d6002830353611911565b603d60018303535b50505080925050505b919050565b8173ffffffffffffffffffffffffffffffffffffffff168373ffffffffffffffffffffffffffffffffffffffff16141561198e576040517f08c379a000000000000000000000000000000000000000000000000000000000815260040161198590613c43565b60405180910390fd5b80600560008573ffffffffffffffffffffffffffffffffffffffff1673ffffffffffffffffffffffffffffffffffffffff16815260200190815260200160002060008473ffffffffffffffffffffffffffffffffffffffff1673ffffffffffffffffffffffffffffffffffffffff16815260200190815260200160002060006101000a81548160ff0219169083151502179055508173ffffffffffffffffffffffffffffffffffffffff168373ffffffffffffffffffffffffffffffffffffffff167f17307eab39ab6107e8899845ad3d59bd9653f200f220920489ca2b5937696c3183604051611a7f91906120e7565b60405180910390a3505050565b611a97848484611389565b611aa384848484611c0b565b611ae2576040517f08c379a0000000000000000000000000000000000000000000000000000000008152600401611ad990613cd5565b60405180910390fd5b50505050565b606060405180602001604052806000815250905090565b6060611b0a826110c8565b611b49576040517f08c379a0000000000000000000000000000000000000000000000000000000008152600401611b4090613d67565b60405180910390fd5b6000611b53611ae8565b90506000815111611b735760405180602001604052806000815250611b9e565b80611b7d8461165a565b604051602001611b8e929190613786565b6040516020818303038152906040525b915050919050565b611bb08383611d93565b611bbd6000848484611c0b565b611bfc576040517f08c379a0000000000000000000000000000000000000000000000000000000008152600401611bf390613cd5565b60405180910390fd5b505050565b505050565b505050565b6000611c2c8473ffffffffffffffffffffffffffffffffffffffff16611f6d565b15611d86578373ffffffffffffffffffffffffffffffffffffffff1663150b7a02611c55611134565b8786866040518563ffffffff1660e01b8152600401611c779493929190613dd1565b6020604051808303816000875af1925050508015611cb357506040513d601f19601f82011682018060405250810190611cb09190613e32565b60015b611d36573d8060008114611ce3576040519150601f19603f3d011682016040523d82523d6000602084013e611ce8565b606091505b50600081511415611d2e576040517f08c379a0000000000000000000000000000000000000000000000000000000008152600401611d2590613cd5565b60405180910390fd5b805181602001fd5b63150b7a0260e01b7bffffffffffffffffffffffffffffffffffffffffffffffffffffffff1916817bffffffffffffffffffffffffffffffffffffffffffffffffffffffff191614915050611d8b565b600190505b949350505050565b600073ffffffffffffffffffffffffffffffffffffffff168273ffffffffffffffffffffffffffffffffffffffff161415611e03576040517f08c379a0000000000000000000000000000000000000000000000000000000008152600401611dfa90613eab565b60405180910390fd5b611e0c816110c8565b15611e4c576040517f08c379a0000000000000000000000000000000000000000000000000000000008152600401611e4390613f17565b60405180910390fd5b611e5860008383611c01565b6001600360008473ffffffffffffffffffffffffffffffffffffffff1673ffffffffffffffffffffffffffffffffffffffff1681526020019081526020016000206000828254611ea8919061360c565b92505081905550816002600083815260200190815260200160002060006101000a81548173ffffffffffffffffffffffffffffffffffffffff021916908373ffffffffffffffffffffffffffffffffffffffff160217905550808273ffffffffffffffffffffffffffffffffffffffff16600073ffffffffffffffffffffffffffffffffffffffff167fddf252ad1be2c89b69c2b068fc378daa952ba7f163c4a11628f55a4df523b3ef60405160405180910390a4611f6960008383611c06565b5050565b6000808273ffffffffffffffffffffffffffffffffffffffff163b119050919050565b828054611f9c90612625565b90600052602060002090601f016020900481019282611fbe5760008555612005565b82601f10611fd757805160ff1916838001178555612005565b82800160010185558215612005579182015b82811115612004578251825591602001919060010190611fe9565b5b5090506120129190612016565b5090565b5b8082111561202f576000816000905550600101612017565b5090565b6000604051905090565b600080fd5b600080fd5b60007fffffffff0000000000000000000000000000000000000000000000000000000082169050919050565b61207c81612047565b811461208757600080fd5b50565b60008135905061209981612073565b92915050565b6000602082840312156120b5576120b461203d565b5b60006120c38482850161208a565b91505092915050565b60008115159050919050565b6120e1816120cc565b82525050565b60006020820190506120fc60008301846120d8565b92915050565b600081519050919050565b600082825260208201905092915050565b60005b8381101561213c578082015181840152602081019050612121565b8381111561214b576000848401525b50505050565b6000601f19601f8301169050919050565b600061216d82612102565b612177818561210d565b935061218781856020860161211e565b61219081612151565b840191505092915050565b600060208201905081810360008301526121b58184612162565b905092915050565b6000819050919050565b6121d0816121bd565b81146121db57600080fd5b50565b6000813590506121ed816121c7565b92915050565b6000602082840312156122095761220861203d565b5b6000612217848285016121de565b91505092915050565b600073ffffffffffffffffffffffffffffffffffffffff82169050919050565b600061224b82612220565b9050919050565b61225b81612240565b82525050565b60006020820190506122766000830184612252565b92915050565b61228581612240565b811461229057600080fd5b50565b6000813590506122a28161227c565b92915050565b600080604083850312156122bf576122be61203d565b5b60006122cd85828601612293565b92505060206122de858286016121de565b9150509250929050565b6000806000606084860312156123015761230061203d565b5b600061230f86828701612293565b935050602061232086828701612293565b9250506040612331868287016121de565b9150509250925092565b6000602082840312156123515761235061203d565b5b600061235f84828501612293565b91505092915050565b612371816121bd565b82525050565b600060208201905061238c6000830184612368565b92915050565b61239b816120cc565b81146123a657600080fd5b50565b6000813590506123b881612392565b92915050565b600080604083850312156123d5576123d461203d565b5b60006123e385828601612293565b92505060206123f4858286016123a9565b9150509250929050565b600080fd5b600080fd5b7f4e487b7100000000000000000000000000000000000000000000000000000000600052604160045260246000fd5b61244082612151565b810181811067ffffffffffffffff8211171561245f5761245e612408565b5b80604052505050565b6000612472612033565b905061247e8282612437565b919050565b600067ffffffffffffffff82111561249e5761249d612408565b5b6124a782612151565b9050602081019050919050565b82818337600083830152505050565b60006124d66124d184612483565b612468565b9050828152602081018484840111156124f2576124f1612403565b5b6124fd8482856124b4565b509392505050565b600082601f83011261251a576125196123fe565b5b813561252a8482602086016124c3565b91505092915050565b6000806000806080858703121561254d5761254c61203d565b5b600061255b87828801612293565b945050602061256c87828801612293565b935050604061257d878288016121de565b925050606085013567ffffffffffffffff81111561259e5761259d612042565b5b6125aa87828801612505565b91505092959194509250565b600080604083850312156125cd576125cc61203d565b5b60006125db85828601612293565b92505060206125ec85828601612293565b9150509250929050565b7f4e487b7100000000000000000000000000000000000000000000000000000000600052602260045260246000fd5b6000600282049050600182168061263d57607f821691505b60208210811415612651576126506125f6565b5b50919050565b7f4552433732313a20617070726f76656420717565727920666f72206e6f6e657860008201527f697374656e7420746f6b656e0000000000000000000000000000000000000000602082015250565b60006126b3602c8361210d565b91506126be82612657565b604082019050919050565b600060208201905081810360008301526126e2816126a6565b9050919050565b7f4552433732313a20617070726f76616c20746f2063757272656e74206f776e6560008201527f7200000000000000000000000000000000000000000000000000000000000000602082015250565b600061274560218361210d565b9150612750826126e9565b604082019050919050565b6000602082019050818103600083015261277481612738565b9050919050565b7f4552433732313a20617070726f76652063616c6c6572206973206e6f74206f7760008201527f6e6572206e6f7220617070726f76656420666f7220616c6c0000000000000000602082015250565b60006127d760388361210d565b91506127e28261277b565b604082019050919050565b60006020820190508181036000830152612806816127ca565b9050919050565b7f796f7520616c7265616479206861766520616e204e4654000000000000000000600082015250565b600061284360178361210d565b915061284e8261280d565b602082019050919050565b6000602082019050818103600083015261287281612836565b9050919050565b7f4552433732313a207472616e736665722063616c6c6572206973206e6f74206f60008201527f776e6572206e6f7220617070726f766564000000000000000000000000000000602082015250565b60006128d560318361210d565b91506128e082612879565b604082019050919050565b60006020820190508181036000830152612904816128c8565b9050919050565b600081905092915050565b7f3c73766720786d6c6e733d22687474703a2f2f7777772e77332e6f72672f323060008201527f30302f737667222076657273696f6e3d22312e312220786d6c6e733a786c696e60208201527f6b3d22687474703a2f2f7777772e77332e6f72672f313939392f786c696e6b2260408201527f20786d6c6e733a7376676a733d22687474703a2f2f7376676a732e6465762f7360608201527f76676a73222076696577426f783d223020302038303020383030223e00000000608082015250565b60006129e4609c8361290b565b91506129ef82612916565b609c82019050919050565b7f20203c646566733e000000000000000000000000000000000000000000000000600082015250565b6000612a3060088361290b565b9150612a3b826129fa565b600882019050919050565b7f202020203c66696c7465722069643d226262626c757272792d66696c7465722260008201527f20783d222d313030252220793d222d31303025222077696474683d223430302560208201527f22206865696768743d2234303025222066696c746572556e6974733d226f626a60408201527f656374426f756e64696e67426f7822207072696d6974697665556e6974733d2260608201527f7573657253706163654f6e5573652220636f6c6f722d696e746572706f6c617460808201527f696f6e2d66696c746572733d2273524742223e0000000000000000000000000060a082015250565b6000612b3a60b38361290b565b9150612b4582612a46565b60b382019050919050565b7f2020202020203c6665476175737369616e426c7572207374644465766961746960008201527f6f6e3d2234302220783d2230252220793d223025222077696474683d2231303060208201527f2522206865696768743d22313030252220696e3d22536f75726365477261706860408201527f69632220656467654d6f64653d226e6f6e652220726573756c743d22626c757260608201527f222f3e0000000000000000000000000000000000000000000000000000000000608082015250565b6000612c1e60838361290b565b9150612c2982612b50565b608382019050919050565b7f202020203c2f66696c7465723e00000000000000000000000000000000000000600082015250565b6000612c6a600d8361290b565b9150612c7582612c34565b600d82019050919050565b7f20203c2f646566733e0000000000000000000000000000000000000000000000600082015250565b6000612cb660098361290b565b9150612cc182612c80565b600982019050919050565b7f20203c672066696c7465723d2275726c28236262626c757272792d66696c746560008201527f7229223e00000000000000000000000000000000000000000000000000000000602082015250565b6000612d2860248361290b565b9150612d3382612ccc565b602482019050919050565b7f3c656c6c697073652072783d22313530222072793d22313530222063783d223560008201527f3025222063793d22353025222066696c6c3d2268736c283331362c203733252c60208201527f2035322529222f3e000000000000000000000000000000000000000000000000604082015250565b6000612dc060488361290b565b9150612dcb82612d3e565b604882019050919050565b6000612de1826129d7565b9150612dec82612a23565b9150612df782612b2d565b9150612e0282612c11565b9150612e0d82612c5d565b9150612e1882612ca9565b9150612e2382612d1b565b9150612e2e82612db3565b9150819050919050565b600081519050919050565b600081905092915050565b6000612e5982612e38565b612e638185612e43565b9350612e7381856020860161211e565b80840191505092915050565b7f3c656c6c697073652072783d22313530222072793d22313530222063783d2200600082015250565b6000612eb5601f8361290b565b9150612ec082612e7f565b601f82019050919050565b6000612ed682612102565b612ee0818561290b565b9350612ef081856020860161211e565b80840191505092915050565b7f25222063793d2200000000000000000000000000000000000000000000000000600082015250565b6000612f3260078361290b565b9150612f3d82612efc565b600782019050919050565b7f25222066696c6c3d2268736c2800000000000000000000000000000000000000600082015250565b6000612f7e600d8361290b565b9150612f8982612f48565b600d82019050919050565b7f2c203733252c2035322529222f3e000000000000000000000000000000000000600082015250565b6000612fca600e8361290b565b9150612fd582612f94565b600e82019050919050565b6000612fec8287612e4e565b9150612ff782612ea8565b91506130038286612ecb565b915061300e82612f25565b915061301a8285612ecb565b915061302582612f71565b91506130318284612ecb565b915061303c82612fbd565b915081905095945050505050565b7f4e487b7100000000000000000000000000000000000000000000000000000000600052601160045260246000fd5b6000613084826121bd565b91507fffffffffffffffffffffffffffffffffffffffffffffffffffffffffffffffff8214156130b7576130b661304a565b5b600182019050919050565b7f3c2f673e00000000000000000000000000000000000000000000000000000000600082015250565b60006130f860048361290b565b9150613103826130c2565b600482019050919050565b7f3c2f7376673e0000000000000000000000000000000000000000000000000000600082015250565b600061314460068361290b565b915061314f8261310e565b600682019050919050565b60006131668284612e4e565b9150613171826130eb565b915061317c82613137565b915081905092915050565b7f646174613a696d6167652f7376672b786d6c3b6261736536342c000000000000600082015250565b60006131bd601a8361290b565b91506131c882613187565b601a82019050919050565b60006131de826131b0565b91506131ea8284612ecb565b915081905092915050565b7f7b00000000000000000000000000000000000000000000000000000000000000600082015250565b600061322b60018361290b565b9150613236826131f5565b600182019050919050565b7f226e616d65223a20225765623320436974697a656e2049442023000000000000600082015250565b6000613277601a8361290b565b915061328282613241565b601a82019050919050565b7f222c000000000000000000000000000000000000000000000000000000000000600082015250565b60006132c360028361290b565b91506132ce8261328d565b600282019050919050565b7f226465736372697074696f6e223a20224120766f74657220494420666f72207760008201527f65623320636974697a656e73222c000000000000000000000000000000000000602082015250565b6000613335602e8361290b565b9150613340826132d9565b602e82019050919050565b7f22696d616765223a202200000000000000000000000000000000000000000000600082015250565b6000613381600a8361290b565b915061338c8261334b565b600a82019050919050565b7f2200000000000000000000000000000000000000000000000000000000000000600082015250565b60006133cd60018361290b565b91506133d882613397565b600182019050919050565b7f7d00000000000000000000000000000000000000000000000000000000000000600082015250565b600061341960018361290b565b9150613424826133e3565b600182019050919050565b600061343a8261321e565b91506134458261326a565b91506134518285612ecb565b915061345c826132b6565b915061346782613328565b915061347282613374565b915061347e8284612ecb565b9150613489826133c0565b91506134948261340c565b91508190509392505050565b7f646174613a6170706c69636174696f6e2f6a736f6e3b6261736536342c000000600082015250565b60006134d6601d8361290b565b91506134e1826134a0565b601d82019050919050565b60006134f7826134c9565b91506135038284612ecb565b915081905092915050565b7f4552433732313a206f776e657220717565727920666f72206e6f6e657869737460008201527f656e7420746f6b656e0000000000000000000000000000000000000000000000602082015250565b600061356a60298361210d565b91506135758261350e565b604082019050919050565b600060208201905081810360008301526135998161355d565b9050919050565b7f706c656173652075736520616e206578697374696e6720696400000000000000600082015250565b60006135d660198361210d565b91506135e1826135a0565b602082019050919050565b60006020820190508181036000830152613605816135c9565b9050919050565b6000613617826121bd565b9150613622836121bd565b9250827fffffffffffffffffffffffffffffffffffffffffffffffffffffffffffffffff038211156136575761365661304a565b5b828201905092915050565b7f4552433732313a2062616c616e636520717565727920666f7220746865207a6560008201527f726f206164647265737300000000000000000000000000000000000000000000602082015250565b60006136be602a8361210d565b91506136c982613662565b604082019050919050565b600060208201905081810360008301526136ed816136b1565b9050919050565b7f45524337323155524953746f726167653a2055524920717565727920666f722060008201527f6e6f6e6578697374656e7420746f6b656e000000000000000000000000000000602082015250565b600061375060318361210d565b915061375b826136f4565b604082019050919050565b6000602082019050818103600083015261377f81613743565b9050919050565b60006137928285612ecb565b915061379e8284612ecb565b91508190509392505050565b7f45524337323155524953746f726167653a2055524920736574206f66206e6f6e60008201527f6578697374656e7420746f6b656e000000000000000000000000000000000000602082015250565b6000613806602e8361210d565b9150613811826137aa565b604082019050919050565b60006020820190508181036000830152613835816137f9565b9050919050565b7f4552433732313a206f70657261746f7220717565727920666f72206e6f6e657860008201527f697374656e7420746f6b656e0000000000000000000000000000000000000000602082015250565b6000613898602c8361210d565b91506138a38261383c565b604082019050919050565b600060208201905081810360008301526138c78161388b565b9050919050565b7f4552433732313a207472616e736665722066726f6d20696e636f72726563742060008201527f6f776e6572000000000000000000000000000000000000000000000000000000602082015250565b600061392a60258361210d565b9150613935826138ce565b604082019050919050565b600060208201905081810360008301526139598161391d565b9050919050565b7f4552433732313a207472616e7366657220746f20746865207a65726f2061646460008201527f7265737300000000000000000000000000000000000000000000000000000000602082015250565b60006139bc60248361210d565b91506139c782613960565b604082019050919050565b600060208201905081810360008301526139eb816139af565b9050919050565b60006139fd826121bd565b9150613a08836121bd565b925082821015613a1b57613a1a61304a565b5b828203905092915050565b6000819050919050565b613a41613a3c826121bd565b613a26565b82525050565b60008160601b9050919050565b6000613a5f82613a47565b9050919050565b6000613a7182613a54565b9050919050565b613a89613a8482612240565b613a66565b82525050565b6000613a9b8287613a30565b602082019150613aab8286613a30565b602082019150613abb8285613a30565b602082019150613acb8284613a78565b60148201915081905095945050505050565b7f4e487b7100000000000000000000000000000000000000000000000000000000600052601260045260246000fd5b6000613b17826121bd565b9150613b22836121bd565b925082613b3257613b31613add565b5b828206905092915050565b6000613b48826121bd565b9150613b53836121bd565b925082613b6357613b62613add565b5b828204905092915050565b7f4e487b7100000000000000000000000000000000000000000000000000000000600052603260045260246000fd5b6000613ba8826121bd565b9150613bb3836121bd565b9250817fffffffffffffffffffffffffffffffffffffffffffffffffffffffffffffffff0483118215151615613bec57613beb61304a565b5b828202905092915050565b7f4552433732313a20617070726f766520746f2063616c6c657200000000000000600082015250565b6000613c2d60198361210d565b9150613c3882613bf7565b602082019050919050565b60006020820190508181036000830152613c5c81613c20565b9050919050565b7f4552433732313a207472616e7366657220746f206e6f6e20455243373231526560008201527f63656976657220696d706c656d656e7465720000000000000000000000000000602082015250565b6000613cbf60328361210d565b9150613cca82613c63565b604082019050919050565b60006020820190508181036000830152613cee81613cb2565b9050919050565b7f4552433732314d657461646174613a2055524920717565727920666f72206e6f60008201527f6e6578697374656e7420746f6b656e0000000000000000000000000000000000602082015250565b6000613d51602f8361210d565b9150613d5c82613cf5565b604082019050919050565b60006020820190508181036000830152613d8081613d44565b9050919050565b600082825260208201905092915050565b6000613da382612e38565b613dad8185613d87565b9350613dbd81856020860161211e565b613dc681612151565b840191505092915050565b6000608082019050613de66000830187612252565b613df36020830186612252565b613e006040830185612368565b8181036060830152613e128184613d98565b905095945050505050565b600081519050613e2c81612073565b92915050565b600060208284031215613e4857613e4761203d565b5b6000613e5684828501613e1d565b91505092915050565b7f4552433732313a206d696e7420746f20746865207a65726f2061646472657373600082015250565b6000613e9560208361210d565b9150613ea082613e5f565b602082019050919050565b60006020820190508181036000830152613ec481613e88565b9050919050565b7f4552433732313a20746f6b656e20616c7265616479206d696e74656400000000600082015250565b6000613f01601c8361210d565b9150613f0c82613ecb565b602082019050919050565b60006020820190508181036000830152613f3081613ef4565b905091905056fe4142434445464748494a4b4c4d4e4f505152535455565758595a6162636465666768696a6b6c6d6e6f707172737475767778797a303132333435363738392b2fa264697066735822122082f8a34dc49534e661a4509807d18e9e4859f198fdb8984b7610e4b63aefedcb64736f6c634300080a0033",
  "linkReferences": {},
  "deployedLinkReferences": {}
}