{
  "_format": "hh-sol-artifact-1",
  "contractName": "Ballot",
  "sourceName": "contracts/Ballot.sol",
  "abi": [
    {
      "inputs": [
        {
          "internalType": "bytes32[]",
          "name": "ballotOptions",
          "type": "bytes32[]"
        },
        {
          "internalType": "address",
          "name": "citizenIDContract",
          "type": "address"
        }
      ],
      "stateMutability": "nonpayable",
      "type": "constructor"
    },
    {
      "inputs": [
        {
          "internalType": "address",
          "name": "to",
          "type": "address"
        }
      ],
      "name": "delegate",
      "outputs": [],
      "stateMutability": "nonpayable",
      "type": "function"
    },
    {
      "inputs": [
        {
          "internalType": "address",
          "name": "addressToCheck",
          "type": "address"
        }
      ],
      "name": "isWeb3Citizen",
      "outputs": [
        {
          "internalType": "bool",
          "name": "",
          "type": "bool"
        }
      ],
      "stateMutability": "view",
      "type": "function"
    },
    {
      "inputs": [
        {
          "internalType": "uint256",
          "name": "",
          "type": "uint256"
        }
      ],
      "name": "proposals",
      "outputs": [
        {
          "internalType": "bytes32",
          "name": "name",
          "type": "bytes32"
        },
        {
          "internalType": "uint256",
          "name": "voteCount",
          "type": "uint256"
        }
      ],
      "stateMutability": "view",
      "type": "function"
    },
    {
      "inputs": [
        {
          "internalType": "uint256",
          "name": "optionID",
          "type": "uint256"
        }
      ],
      "name": "vote",
      "outputs": [],
      "stateMutability": "nonpayable",
      "type": "function"
    },
    {
      "inputs": [
        {
          "internalType": "bytes32",
          "name": "nameToCheck",
          "type": "bytes32"
        }
      ],
      "name": "voteCount",
      "outputs": [
        {
          "internalType": "uint256",
          "name": "",
          "type": "uint256"
        }
      ],
      "stateMutability": "view",
      "type": "function"
    },
    {
      "inputs": [
        {
          "internalType": "address",
          "name": "",
          "type": "address"
        }
      ],
      "name": "voters",
      "outputs": [
        {
          "internalType": "uint256",
          "name": "weight",
          "type": "uint256"
        },
        {
          "internalType": "bool",
          "name": "voted",
          "type": "bool"
        },
        {
          "internalType": "address",
          "name": "delegate",
          "type": "address"
        },
        {
          "internalType": "uint256",
          "name": "vote",
          "type": "uint256"
        }
      ],
      "stateMutability": "view",
      "type": "function"
    },
    {
      "inputs": [],
      "name": "winnerName",
      "outputs": [
        {
          "internalType": "bytes32",
          "name": "winnerName_",
          "type": "bytes32"
        }
      ],
      "stateMutability": "view",
      "type": "function"
    },
    {
      "inputs": [],
      "name": "winningProposal",
      "outputs": [
        {
          "internalType": "uint256",
          "name": "winningProposal_",
          "type": "uint256"
        }
      ],
      "stateMutability": "view",
      "type": "function"
    }
  ],
  "bytecode": "0x60806040523480156200001157600080fd5b50604051620016a3380380620016a3833981810160405281019062000037919062000340565b806000806101000a81548173ffffffffffffffffffffffffffffffffffffffff021916908373ffffffffffffffffffffffffffffffffffffffff16021790555060005b82518110156200010e5760036040518060400160405280858481518110620000a757620000a6620003a6565b5b602002602001015181526020016000815250908060018154018082558091505060019003906000526020600020906002020160009091909190915060008201518160000155602082015181600101555050808062000105906200040e565b9150506200007a565b5050506200045c565b6000604051905090565b600080fd5b600080fd5b600080fd5b6000601f19601f8301169050919050565b7f4e487b7100000000000000000000000000000000000000000000000000000000600052604160045260246000fd5b6200017b8262000130565b810181811067ffffffffffffffff821117156200019d576200019c62000141565b5b80604052505050565b6000620001b262000117565b9050620001c0828262000170565b919050565b600067ffffffffffffffff821115620001e357620001e262000141565b5b602082029050602081019050919050565b600080fd5b6000819050919050565b6200020e81620001f9565b81146200021a57600080fd5b50565b6000815190506200022e8162000203565b92915050565b60006200024b6200024584620001c5565b620001a6565b90508083825260208201905060208402830185811115620002715762000270620001f4565b5b835b818110156200029e57806200028988826200021d565b84526020840193505060208101905062000273565b5050509392505050565b600082601f830112620002c057620002bf6200012b565b5b8151620002d284826020860162000234565b91505092915050565b600073ffffffffffffffffffffffffffffffffffffffff82169050919050565b60006200030882620002db565b9050919050565b6200031a81620002fb565b81146200032657600080fd5b50565b6000815190506200033a816200030f565b92915050565b600080604083850312156200035a576200035962000121565b5b600083015167ffffffffffffffff8111156200037b576200037a62000126565b5b6200038985828601620002a8565b92505060206200039c8582860162000329565b9150509250929050565b7f4e487b7100000000000000000000000000000000000000000000000000000000600052603260045260246000fd5b7f4e487b7100000000000000000000000000000000000000000000000000000000600052601160045260246000fd5b6000819050919050565b60006200041b8262000404565b91507fffffffffffffffffffffffffffffffffffffffffffffffffffffffffffffffff821415620004515762000450620003d5565b5b600182019050919050565b611237806200046c6000396000f3fe608060405234801561001057600080fd5b50600436106100885760003560e01c8063918b99f41161005b578063918b99f414610114578063a3ec138d14610144578063e2ba53f014610177578063f28bddf61461019557610088565b80630121b93f1461008d578063013cf08b146100a95780635c19a95c146100da578063609ff1bd146100f6575b600080fd5b6100a760048036038101906100a29190610cc4565b6101c5565b005b6100c360048036038101906100be9190610cc4565b61042b565b6040516100d1929190610d19565b60405180910390f35b6100f460048036038101906100ef9190610da0565b61045f565b005b6100fe610a37565b60405161010b9190610dcd565b60405180910390f35b61012e60048036038101906101299190610da0565b610abf565b60405161013b9190610e03565b60405180910390f35b61015e60048036038101906101599190610da0565b610b6a565b60405161016e9493929190610e2d565b60405180910390f35b61017f610bc7565b60405161018c9190610e72565b60405180910390f35b6101af60048036038101906101aa9190610eb9565b610bfb565b6040516101bc9190610dcd565b60405180910390f35b6000600160003373ffffffffffffffffffffffffffffffffffffffff1673ffffffffffffffffffffffffffffffffffffffff16815260200190815260200160002054141561029a5760018060003373ffffffffffffffffffffffffffffffffffffffff1673ffffffffffffffffffffffffffffffffffffffff168152602001908152602001600020819055506001600260003373ffffffffffffffffffffffffffffffffffffffff1673ffffffffffffffffffffffffffffffffffffffff168152602001908152602001600020600001819055505b6000600260003373ffffffffffffffffffffffffffffffffffffffff1673ffffffffffffffffffffffffffffffffffffffff16815260200190815260200160002090508060010160009054906101000a900460ff161561032f576040517f08c379a000000000000000000000000000000000000000000000000000000000815260040161032690610f43565b60405180910390fd5b60018160010160006101000a81548160ff02191690831515021790555081816002018190555080600001546003838154811061036e5761036d610f63565b5b9060005260206000209060020201600101600082825461038e9190610fc1565b9250508190555060008060009054906101000a900473ffffffffffffffffffffffffffffffffffffffff1690508073ffffffffffffffffffffffffffffffffffffffff16636dd7d8ea336040518263ffffffff1660e01b81526004016103f49190611017565b600060405180830381600087803b15801561040e57600080fd5b505af1158015610422573d6000803e3d6000fd5b50505050505050565b6003818154811061043b57600080fd5b90600052602060002090600202016000915090508060000154908060010154905082565b6000600160003373ffffffffffffffffffffffffffffffffffffffff1673ffffffffffffffffffffffffffffffffffffffff1681526020019081526020016000205414156105345760018060003373ffffffffffffffffffffffffffffffffffffffff1673ffffffffffffffffffffffffffffffffffffffff168152602001908152602001600020819055506001600260003373ffffffffffffffffffffffffffffffffffffffff1673ffffffffffffffffffffffffffffffffffffffff168152602001908152602001600020600001819055505b6000600160008373ffffffffffffffffffffffffffffffffffffffff1673ffffffffffffffffffffffffffffffffffffffff1681526020019081526020016000205414156106095760018060008373ffffffffffffffffffffffffffffffffffffffff1673ffffffffffffffffffffffffffffffffffffffff168152602001908152602001600020819055506001600260008373ffffffffffffffffffffffffffffffffffffffff1673ffffffffffffffffffffffffffffffffffffffff168152602001908152602001600020600001819055505b6000600260003373ffffffffffffffffffffffffffffffffffffffff1673ffffffffffffffffffffffffffffffffffffffff16815260200190815260200160002090508060010160009054906101000a900460ff161561069e576040517f08c379a00000000000000000000000000000000000000000000000000000000081526004016106959061107e565b60405180910390fd5b3373ffffffffffffffffffffffffffffffffffffffff168273ffffffffffffffffffffffffffffffffffffffff16141561070d576040517f08c379a0000000000000000000000000000000000000000000000000000000008152600401610704906110ea565b60405180910390fd5b5b600073ffffffffffffffffffffffffffffffffffffffff16600260008473ffffffffffffffffffffffffffffffffffffffff1673ffffffffffffffffffffffffffffffffffffffff16815260200190815260200160002060010160019054906101000a900473ffffffffffffffffffffffffffffffffffffffff1673ffffffffffffffffffffffffffffffffffffffff161461087d57600260008373ffffffffffffffffffffffffffffffffffffffff1673ffffffffffffffffffffffffffffffffffffffff16815260200190815260200160002060010160019054906101000a900473ffffffffffffffffffffffffffffffffffffffff1691503373ffffffffffffffffffffffffffffffffffffffff168273ffffffffffffffffffffffffffffffffffffffff161415610878576040517f08c379a000000000000000000000000000000000000000000000000000000000815260040161086f90611156565b60405180910390fd5b61070e565b60018160010160006101000a81548160ff021916908315150217905550818160010160016101000a81548173ffffffffffffffffffffffffffffffffffffffff021916908373ffffffffffffffffffffffffffffffffffffffff1602179055506000600260008473ffffffffffffffffffffffffffffffffffffffff1673ffffffffffffffffffffffffffffffffffffffff16815260200190815260200160002090508060010160009054906101000a900460ff1615610980578160000154600382600201548154811061095457610953610f63565b5b906000526020600020906002020160010160008282546109749190610fc1565b925050819055506109a0565b81600001548160000160008282546109989190610fc1565b925050819055505b60008060009054906101000a900473ffffffffffffffffffffffffffffffffffffffff1690508073ffffffffffffffffffffffffffffffffffffffff16636dd7d8ea336040518263ffffffff1660e01b81526004016109ff9190611017565b600060405180830381600087803b158015610a1957600080fd5b505af1158015610a2d573d6000803e3d6000fd5b5050505050505050565b6000806000905060005b600380549050811015610aba578160038281548110610a6357610a62610f63565b5b9060005260206000209060020201600101541115610aa75760038181548110610a8f57610a8e610f63565b5b90600052602060002090600202016001015491508092505b8080610ab290611176565b915050610a41565b505090565b60008060008054906101000a900473ffffffffffffffffffffffffffffffffffffffff16905060008173ffffffffffffffffffffffffffffffffffffffff166370a08231856040518263ffffffff1660e01b8152600401610b209190611017565b602060405180830381865afa158015610b3d573d6000803e3d6000fd5b505050506040513d601f19601f82011682018060405250810190610b6191906111d4565b11915050919050565b60026020528060005260406000206000915090508060000154908060010160009054906101000a900460ff16908060010160019054906101000a900473ffffffffffffffffffffffffffffffffffffffff16908060020154905084565b60006003610bd3610a37565b81548110610be457610be3610f63565b5b906000526020600020906002020160000154905090565b600080600090505b600380549050811015610c7e578260038281548110610c2557610c24610f63565b5b9060005260206000209060020201600001541415610c6b5760038181548110610c5157610c50610f63565b5b906000526020600020906002020160010154915050610c84565b8080610c7690611176565b915050610c03565b50600090505b919050565b600080fd5b6000819050919050565b610ca181610c8e565b8114610cac57600080fd5b50565b600081359050610cbe81610c98565b92915050565b600060208284031215610cda57610cd9610c89565b5b6000610ce884828501610caf565b91505092915050565b6000819050919050565b610d0481610cf1565b82525050565b610d1381610c8e565b82525050565b6000604082019050610d2e6000830185610cfb565b610d3b6020830184610d0a565b9392505050565b600073ffffffffffffffffffffffffffffffffffffffff82169050919050565b6000610d6d82610d42565b9050919050565b610d7d81610d62565b8114610d8857600080fd5b50565b600081359050610d9a81610d74565b92915050565b600060208284031215610db657610db5610c89565b5b6000610dc484828501610d8b565b91505092915050565b6000602082019050610de26000830184610d0a565b92915050565b60008115159050919050565b610dfd81610de8565b82525050565b6000602082019050610e186000830184610df4565b92915050565b610e2781610d62565b82525050565b6000608082019050610e426000830187610d0a565b610e4f6020830186610df4565b610e5c6040830185610e1e565b610e696060830184610d0a565b95945050505050565b6000602082019050610e876000830184610cfb565b92915050565b610e9681610cf1565b8114610ea157600080fd5b50565b600081359050610eb381610e8d565b92915050565b600060208284031215610ecf57610ece610c89565b5b6000610edd84828501610ea4565b91505092915050565b600082825260208201905092915050565b7f596f7520616c726561647920766f746564000000000000000000000000000000600082015250565b6000610f2d601183610ee6565b9150610f3882610ef7565b602082019050919050565b60006020820190508181036000830152610f5c81610f20565b9050919050565b7f4e487b7100000000000000000000000000000000000000000000000000000000600052603260045260246000fd5b7f4e487b7100000000000000000000000000000000000000000000000000000000600052601160045260246000fd5b6000610fcc82610c8e565b9150610fd783610c8e565b9250827fffffffffffffffffffffffffffffffffffffffffffffffffffffffffffffffff0382111561100c5761100b610f92565b5b828201905092915050565b600060208201905061102c6000830184610e1e565b92915050565b7f596f7520616c726561647920766f7465642e0000000000000000000000000000600082015250565b6000611068601283610ee6565b915061107382611032565b602082019050919050565b600060208201905081810360008301526110978161105b565b9050919050565b7f53656c662d64656c65676174696f6e20697320646973616c6c6f7765642e0000600082015250565b60006110d4601e83610ee6565b91506110df8261109e565b602082019050919050565b60006020820190508181036000830152611103816110c7565b9050919050565b7f466f756e64206c6f6f7020696e2064656c65676174696f6e2e00000000000000600082015250565b6000611140601983610ee6565b915061114b8261110a565b602082019050919050565b6000602082019050818103600083015261116f81611133565b9050919050565b600061118182610c8e565b91507fffffffffffffffffffffffffffffffffffffffffffffffffffffffffffffffff8214156111b4576111b3610f92565b5b600182019050919050565b6000815190506111ce81610c98565b92915050565b6000602082840312156111ea576111e9610c89565b5b60006111f8848285016111bf565b9150509291505056fea264697066735822122064832023c28980aa3a2d83a022529d96c1165db5e89f2ea4c5083f9062a60d5b64736f6c634300080a0033",
  "linkReferences": {},
  "deployedLinkReferences": {}
}